:020000040800F2
:1000000000000120050300080B030008110300088D
:1000100033030008390300085B03000800000000F8
:100020000000000000000000000000007D03000848
:100030008303000800000000890300088F03000804
:10004000AD030008AD030008AD030008AD030008D0
:10005000AD030008AD030008AD030008AD030008C0
:10006000AD030008AD030008AD030008AD030008B0
:10007000AD030008AD030008AD030008AD030008A0
:10008000AD030008AD030008AD0300080000000048
:10009000000000000000000000000000AD030008A8
:1000A000AD030008AD030008AD030008AD03000870
:1000B000AD030008AD030008AD030008AD03000860
:1000C000AD030008AD030008AD030008AD03000850
:1000D000AD030008AD030008AD03000800000000F8
:1000E000AD030008AD030008AD03000800000000E8
:1000F000000000000000000000000000AD03000848
:1001000000000000AD030008AD030008AD030008C7
:1001100000000000000000000000000000000000DF
:10012000AD030008AD030008AD030008AD030008EF
:10013000AD03000800000000000000000000000007
:10014000000000000000000000000000AD030008F7
:10015000AD030008AD030008AD030008AD030008BF
:10016000AD030008AD03000800000000000000001F
:10017000000000000000000000000000000000007F
:1001800000000000AD0300080000000000000000B7
:10019000AD03000880B596B000AF00F037F94F4BC3
:1001A0007B6524E07B6D1A1D7A651B683B647B6D63
:1001B0001A1D7A651B68FB637B6D1A1D7A651B68C7
:1001C000BB633B6C7B63FB6B3B63BB6BFB623B6B5F
:1001D000BB6207E07A6B131D7B63BB6A191DB962B2
:1001E00012681A60FA6ABB6A9A42F3D800BF7B6D44
:1001F0003B4A9342D6D33B4B3B651AE03B6D1A1DFD
:100200003A651B68BB643B6D1A1D3A651B687B64CD
:10021000BB6C7B627B6C3B627B6AFB6104E0FB69CD
:100220001A1DFA6100221A603A6AFB699A42F6D8EE
:1002300000BF3B6D2C4A9342E0D300F0F5F83A1D25
:1002400007F108031146184600F0CEF8274A284B5C
:10025000D31A9B103B610023FB6007E0244AFB6834
:1002600052F823309847FB680133FB603A69FB681A
:100270009A42F3DC1F4A204BD31A9B103B610023A8
:10028000FB6007E01C4AFB6852F823309847FB6884
:100290000133FB603A69FB689A42F3DC00BFBB683C
:1002A0007A681146184600F057FAF864134A144B5E
:1002B000D31A9B10BB61BB697B6108E07B69013B82
:1002C0000F4A52F8233098477B69013B7B617B6979
:1002D000002BF3DC00BFF86C00F080F8B4030008DA
:1002E000CC030008CC030008DC030008DC03000892
:1002F000DC030008DC030008DC030008DC03000862
:10030000DC0300082548004700BF80B400AFFEE7CB
:100310001EF0040F0CBFEFF30880EFF30980714665
:100320001F4A104700BF80B483B000AF78603960C7
:10033000FEE780B400AFFEE71EF0040F0CBFEFF342
:100340000880EFF309807146164A104700BF80B459
:1003500083B000AF78603960FEE71EF0040F0CBF79
:10036000EFF30880EFF3098071460F4A104700BF92
:1003700080B483B000AF78603960FEE780B400AF2E
:10038000FEE780B400AFFEE780B400AFFEE780B4C4
:1003900000AF00BFBD4680BC70470000950100085B
:1003A000270300084F0300087103000880B400AF62
:0203B000FEE766
:1003B4009C12000800000020240000209C12000869
:1003C4000000001000000010240000203400002071
:0803D400000000100000001001
:1003DC0080B582B000AF786000F03CF880B483B098
:1003EC0000AF786039607B6801221A603B68034A71
:1003FC001A6000BF0C37BD4680BC7047000000205F
:10040C0080B500AF00F02AF8024B034A9A6000BF97
:10041C0080BD00BF00ED00E00000000880B500AF1B
:10042C0000F028F800BF80BD80B400AFBFF34F8F41
:10043C0000BF064BDB6803F4E0620449044B134332
:10044C00CB60BFF34F8F00BF00BFFDE700ED00E0B6
:10045C000400FA0580B500AFFFF7E6FF80B400AFEB
:10046C00034B4FF000629A6000BFBD4680BC7047E2
:10047C0000ED00E080B487B000AF00233B610023A7
:10048C007B610223FB600023BB6002237B60344B47
:10049C009B6803F00C033B613B69082B11D03B6953
:1004AC00082B44D83B69002B03D03B69042B04D0A8
:1004BC003DE02C4B2C4A1A603DE02A4B2B4A1A602B
:1004CC0039E0274B5B689B0D03F00103BB60244BA9
:1004DC005B6803F03F037B60BB68002B0CD0234AA6
:1004EC007B68B2FBF3F31E4A52689209C2F308020E
:1004FC0002FB03F37B610BE01B4A7B68B2FBF3F35B
:10050C00174A52689209C2F3080202FB03F37B619B
:10051C00134B5B681B0C03F0030301335B00FB60A4
:10052C007A69FB68B2FBF3F30E4A136003E00D4BE0
:10053C000D4A1A6000BF0A4B9B681B0903F00F039E
:10054C000B4AD35C3B61074B1A683B6922FA03F3F5
:10055C00044A136000BF1C37BD4680BC704700BF07
:10056C0000380240080000200024F40000127A0039
:10057C008C12000880B500AF00F0A0F9002000F04C
:10058C00ABF9012000F0A8F9402000F0A5F90221F8
:10059C00412000F0F5F900220221412000F00AFA76
:1005AC000421412000F0ECF900220421412000F04C
:1005BC0001FA0621412000F0E3F900220621412036
:1005CC0000F0F8F90521422000F078FB08214220C8
:1005DC0000F074FB00F00AFB00BF80BD80B582B058
:1005EC0000AF0346FB71FB791A460221412000F053
:1005FC00E1F9FB791A460621412000F0DBF9FB7981
:10060C001A460421412000F0D5F900BF0837BD4639
:10061C0080BD000080B582B000AF00F019FB78609F
:10062C00144B1B687A68D31AB3F5FA7F1ED3124B9E
:10063C001B780133DAB2104B1A70002204214120CE
:10064C0000F0B8F90C4B1B78042B0AD100220621C0
:10065C00412000F0AFF9084B00221A70074B012221
:10066C001A7000F0F5FA0346024A136000BF08370F
:10067C00BD4680BD2C000020260000202800002054
:10068C0080B582B000AF00F0E3FA7860174B1B68BE
:10069C007A68D31AB3F5FA7F23D3154B1B78013341
:1006AC00DAB2134B1A700421412000F096F900F0D5
:1006BC00CFFA03460D4A13600D4B1B78032B10D158
:1006CC000B4B00221A7000220421412000F072F919
:1006DC00084B02221A70084B01221A70074B002299
:1006EC001A7000BF0837BD4680BD00BF2C0000202B
:1006FC00270000200D0000200C0000200F0000201F
:10070C0080B582B000AF00F0A3FA78600D4B1B6887
:10071C007A68D31AB3F57A7F10D3002206214120D0
:10072C0000F048F942F2107000F06CFA064B01220E
:10073C001A7000F08DFA0346024A136000BF0837A6
:10074C00BD4680BD2C0000202500002080B500AFE8
:10075C00FFF710FF0521422000F0D4FA0346012BCD
:10076C0026D14F4B1B78022B02D14D4B00221A7015
:10077C004B4B1B78002B03D1494B01221A7002E022
:10078C00474B00221A70474B00221A70464B00222E
:10079C001A70464B00221A700120FFF71FFF42F21D
:1007AC00107000F02FFA00F053FA0346404A136021
:1007BC003B4B1B78012B61D13C4B1B78002B01D19F
:1007CC00FFF728FF0821422000F09CFA0346012B7A
:1007DC0021D1384B1B78022B02D1364B00221A70D8
:1007EC00344B1B78002B03D1324B01221A7002E0E0
:1007FC00304B00221A7001220621412000F0DAF859
:10080C002D4B00221A70284B00221A7000F020FA8F
:10081C000346274A1360274B1B78002B05D1264B28
:10082C001B78002B01D1FFF76BFF00F011FA034688
:10083C00002B1BD11C4B1B78002B17D11D4B1B788D
:10084C00002B03D01B4B1B78022B0FD1164B012214
:10085C001A7000F0FDF90346154A13600020FFF7EB
:10086C00BDFE01220421412000F0A4F80E4B1B78A0
:10087C00012B7FF46FAFFFF703FF6BE7084B1B787F
:10088C00002B7FF467AF00220621412000F092F884
:10089C0000220221412000F08DF8FFF7F1FE59E70C
:1008AC000D0000200C0000200F000020280000206C
:1008BC002C0000200E0000202500002080B400AF8A
:1008CC00044B1B68034A43F00103136000BFBD4691
:1008DC0080BC70470038024080B485B000AF03463E
:1008EC00FB71FB795B09FB73FB7903F01F03BB7393
:1008FC00FB7B032B36D801A252F823F01909000810
:10090C002F090008450900085B090008184B1B68F3
:10091C00BA7B012101FA02F21146154A0B4313600E
:10092C0021E0144B1B68BA7B012101FA02F211463B
:10093C00104A0B43136016E00F4B1B68BA7B012166
:10094C0001FA02F211460C4A0B4313600BE00B4BFD
:10095C001B68BA7B012101FA02F21146074A0B43CC
:10096C00136000E000BF00BF1437BD4680BC704769
:10097C00303802403438024040380240443802409B
:10098C0080B584B002AF03460A46FB711346BB71B7
:10099C00B979F879002300930023012200F03EF886
:1009AC00B979FB790022184600F094F800BF08379B
:1009BC00BD4680BD80B582B000AF0346FB710B46CF
:1009CC00BB7113467B717A79B979FB79184600F0C3
:1009DC0081F800BF0837BD4680BD80B584B000AF3C
:1009EC0003460A46FB711346BB71BA79FB79114673
:1009FC00184600F0ABF80346FB73FB7B002B0CBFD7
:100A0C0001230023DBB21A46B979FB79184600F0B2
:100A1C0061F800BF1037BD4680BD000090B484B0B3
:100A2C0000AF0446084611461A462346FB7103469E
:100A3C00BB710B467B7113463B71FB79413BFB73DE
:100A4C00FB7B234A52F82330BB60BB681B68BA7926
:100A5C005200032101FA02F2D2431A40BB681A6019
:100A6C00BB681B687979BA79520001FA02F21A4311
:100A7C00BB681A60BB685B68BA79012101FA02F2A3
:100A8C00D2431A40BB685A60BB685B683979BA7943
:100A9C0001FA02F21A43BB685A60BB68DB68BA7988
:100AAC005200032101FA02F2D2431A40BB68DA6009
:100ABC00BB68DB68397EBA79520001FA02F21A433C
:100ACC00BB68DA6000BF1037BD4690BC704700BFF2
:100ADC001000002080B485B000AF0346FB710B46BC
:100AEC00BB7113467B71FB79413BFB73FB7B164A55
:100AFC0052F82330BB60BB681B68BA7952000321E3
:100B0C0001FA02F21A40BB795B0022FA03F3012BC3
:100B1C0001D0002313E0BB685B69BA79012101FAAB
:100B2C0002F2D2431A40BB685A61BB685B6979799F
:100B3C00BA7901FA02F21A43BB685A6101231846CA
:100B4C001437BD4680BC70471000002080B485B0BF
:100B5C0000AF03460A46FB711346BB71FB79413B60
:100B6C00BB73BB7B204A52F82330BB60BB681B684D
:100B7C00BA795200032101FA02F21A40BB795B00E8
:100B8C0022FA03F3012B0DD1BB685B69BA79012101
:100B9C0001FA02F21340002B14BF01230023DBB235
:100BAC00FB731AE0BB681B68BA795200032101FA87
:100BBC0002F21A40BB795B0022FA03F3002B0CD132
:100BCC00BB681B69BA79012101FA02F21340002BB0
:100BDC000CBF01230023DBB2FB73FB7B18461437DD
:100BEC00BD4680BC704700BF1000002080B400AF31
:100BFC004FF0804340F69F729A6200BFBD4680BCA6
:100C0C007047000080B483B000AF78604FF0804331
:100C1C001B684FF0804223F0010313604FF08042B9
:100C2C007B68D3624FF0804301225A62074B01224A
:100C3C001A704FF080431B684FF0804243F0010361
:100C4C00136000BF0C37BD4680BC704730000020DD
:100C5C0080B400AF4FF080435B6A1846BD4680BC41
:100C6C007047000090B587B000AF7860114B3B61C6
:100C7C00786800F03DF904460F49386900F090F9A6
:100C8C0003461946204600F03FFA0346184600F08A
:100C9C00D7FA0346FB6000237B6102E07B690133DA
:100CAC007B617A69FB689A42F8D300BF00BF1C379E
:100CBC00BD4690BDBD37863500007A4480B584B002
:100CCC0002AF03460A46FB711346BB71BB79012286
:100CDC0002FA03F31AB20A4B1B881BB213431BB262
:100CEC009AB2074B1A80B979F87901230093002343
:100CFC000022FFF793FE00BF0837BD4680BD00BF42
:100D0C003200002080B582B000AF03460A46FB716A
:100D1C001346BB71BA79FB7911461846FFF716FFDB
:100D2C000346012B1AD11E20FFF79CFFBA79FB79E1
:100D3C0011461846FFF70AFF0346012B1BD1104B37
:100D4C001B881A46BB7942FA03F303F00103002B0C
:100D5C0011D00B4B00221A8001230DE0BB7901222C
:100D6C0002FA03F31AB2064B1B881BB213431BB2D5
:100D7C009AB2034B1A80002318460837BD4680BD33
:100D8C003200002080F0004002E000BF81F0004102
:100D9C0042001FBF5FEA410392EA030F7FEA226C15
:100DAC007FEA236C6AD04FEA1262D2EB1363C1BFA5
:100DBC00D218414048404140B8BF5B42192B88BF14
:100DCC00704710F0004F40F4000020F07F4018BF37
:100DDC00404211F0004F41F4000121F07F4118BF57
:100DEC00494292EA030F3FD0A2F1010241FA03FCFF
:100DFC0010EB0C00C3F1200301FA03F100F00043E7
:100E0C0002D5494260EB4000B0F5000F13D3B0F1AE
:100E1C00807F06D340084FEA310102F10102FE2A1D
:100E2C0051D2B1F1004F40EBC25008BF20F001008D
:100E3C0040EA03007047490040EB0000013A28BF2C
:100E4C00B0F5000FEDD2B0FA80FCACF1080CB2EBAF
:100E5C000C0200FA0CF0AABF00EBC250524218432D
:100E6C00BCBFD0401843704792F0000F81F40001D2
:100E7C0006BF80F400000132013BB5E74FEA4103A5
:100E8C007FEA226C18BF7FEA236C21D092EA030F11
:100E9C0004D092F0000F08BF0846704790EA010F8B
:100EAC001CBF0020704712F07F4F04D1400028BFB8
:100EBC0040F00040704712F100723CBF00F500009A
:100ECC00704700F0004343F0FE4040F400007047D0
:100EDC007FEA226216BF08467FEA2363014642027C
:100EEC0006BF5FEA412390EA010F40F4800070478F
:100EFC004FF0000304E000BF10F0004348BF404235
:100F0C005FEA000C08BF704743F0964301464FF070
:100F1C0000001CE050EA010208BF70474FF00003CC
:100F2C000AE000BF50EA010208BF704711F000430D
:100F3C0002D5404261EB41015FEA010C02BF8446DD
:100F4C000146002043F0B64308BFA3F18053A3F53C
:100F5C000003BCFA8CF2083AA3EBC25310DB01FA83
:100F6C0002FC634400FA02FCC2F12002BCF1004F07
:100F7C0020FA02F243EB020008BF20F00100704798
:100F8C0002F1200201FA02FCC2F1200250EA4C00EC
:100F9C0021FA02F243EB020008BF20EADC70704732
:100FAC004FF0FF0C1CEAD0521EBF1CEAD15392EA40
:100FBC000C0F93EA0C0F6FD01A4480EA010C40021C
:100FCC0018BF5FEA41211ED04FF0006343EA501076
:100FDC0043EA5111A0FB01310CF00040B1F5000FB8
:100FEC003EBF490041EAD3715B0040EA010062F167
:100FFC007F02FD2A1DD8B3F1004F40EBC25008BF51
:10100C0020F00100704790F0000F0CF0004C08BF6E
:10101C0049024CEA502040EA51207F3AC2BFD2F13B
:10102C00FF0340EAC250704740F400004FF0000349
:10103C00013A5DDC12F1190FDCBF00F00040704783
:10104C00C2F10002410021FA02F1C2F1200200FAC1
:10105C0002FC5FEA310040F1000053EA4C0308BF88
:10106C0020EADC70704792F0000F00F0004C02BFD9
:10107C00400010F4000F013AF9D040EA0C0093F054
:10108C00000F01F0004C02BF490011F4000F013BAE
:10109C00F9D041EA0C018FE70CEAD15392EA0C0F1C
:1010AC0018BF93EA0C0F0AD030F0004C18BF31F087
:1010BC00004CD8D180EA010000F00040704790F05D
:1010CC00000F17BF90F0004F084691F0000F91F001
:1010DC00004F14D092EA0C0F01D142020FD193EAC7
:1010EC000C0F03D14B0218BF084608D180EA01004F
:1010FC0000F0004040F0FE4040F40000704740F02B
:10110C00FE4040F4400070474FF0FF0C1CEAD052F8
:10111C001EBF1CEAD15392EA0C0F93EA0C0F69D054
:10112C00A2EB030280EA010C49024FEA402037D0BF
:10113C004FF0805343EA111143EA10130CF00040B6
:10114C008B4238BF5B0042F17D024FF4000C8B42A6
:10115C0024BF5B1A40EA0C00B3EB510F24BFA3EB86
:10116C00510340EA5C00B3EB910F24BFA3EB910356
:10117C0040EA9C00B3EBD10F24BFA3EBD10340EAB0
:10118C00DC001B0118BF5FEA1C1CE0D1FD2A3FF6F6
:10119C0050AF8B4240EBC25008BF20F001007047AB
:1011AC000CF0004C4CEA50207F32C2BFD2F1FF034E
:1011BC0040EAC250704740F400004FF00003013A7F
:1011CC0037E792F0000F00F0004C02BF400010F423
:1011DC00000F013AF9D040EA0C0093F0000F01F037
:1011EC00004C02BF490011F4000F013BF9D041EA59
:1011FC000C0195E70CEAD15392EA0C0F08D142028C
:10120C007FF47DAF93EA0C0F7FF470AF084676E75E
:10121C0093EA0C0F04D14B023FF44CAF08466EE737
:10122C0030F0004C18BF31F0004CCAD130F0004205
:10123C007FF45CAF31F000437FF43CAF5FE700BF5D
:10124C0042000ED2B2F1FE4F0BD34FF09E03B3EB24
:10125C00126209D44FEA002343F0004323FA02F050
:10126C0070474FF00000704712F1610F01D142023C
:10127C0002D14FF0FF3070474FF00000704700BFB5
:10128C00000000000000000001020304060708092A
:10129C0024000020000000000024F40001020201E0
:1012AC00000002400004024000080240000C024012
:0412BC0000100240DC
:040000050800019559
:00000001FF
