:020000040800F2
:1000000000000120050300080B030008110300088D
:1000100033030008390300085B03000800000000F8
:100020000000000000000000000000007D03000848
:100030008303000800000000890300088F03000804
:10004000AD030008AD030008AD030008AD030008D0
:10005000AD030008AD030008AD030008AD030008C0
:10006000AD030008AD030008AD030008AD030008B0
:10007000AD030008AD030008AD030008AD030008A0
:10008000AD030008AD030008AD0300080000000048
:10009000000000000000000000000000AD030008A8
:1000A000AD030008AD030008AD030008AD03000870
:1000B000AD030008AD030008AD030008AD03000860
:1000C000AD030008AD030008AD030008AD03000850
:1000D000AD030008AD030008AD03000800000000F8
:1000E000AD030008AD030008AD03000800000000E8
:1000F000000000000000000000000000AD03000848
:1001000000000000AD030008AD030008AD030008C7
:1001100000000000000000000000000000000000DF
:10012000AD030008AD030008AD030008AD030008EF
:10013000AD03000800000000000000000000000007
:10014000000000000000000000000000AD030008F7
:10015000AD030008AD030008AD030008AD030008BF
:10016000AD030008AD03000800000000000000001F
:10017000000000000000000000000000000000007F
:1001800000000000AD0300080000000000000000B7
:10019000AD03000880B596B000AF00F037F94F4BC3
:1001A0007B6524E07B6D1A1D7A651B683B647B6D63
:1001B0001A1D7A651B68FB637B6D1A1D7A651B68C7
:1001C000BB633B6C7B63FB6B3B63BB6BFB623B6B5F
:1001D000BB6207E07A6B131D7B63BB6A191DB962B2
:1001E00012681A60FA6ABB6A9A42F3D800BF7B6D44
:1001F0003B4A9342D6D33B4B3B651AE03B6D1A1DFD
:100200003A651B68BB643B6D1A1D3A651B687B64CD
:10021000BB6C7B627B6C3B627B6AFB6104E0FB69CD
:100220001A1DFA6100221A603A6AFB699A42F6D8EE
:1002300000BF3B6D2C4A9342E0D300F0F5F83A1D25
:1002400007F108031146184600F0CEF8274A284B5C
:10025000D31A9B103B610023FB6007E0244AFB6834
:1002600052F823309847FB680133FB603A69FB681A
:100270009A42F3DC1F4A204BD31A9B103B610023A8
:10028000FB6007E01C4AFB6852F823309847FB6884
:100290000133FB603A69FB689A42F3DC00BFBB683C
:1002A0007A681146184600F0D1F9F864134A144BE5
:1002B000D31A9B10BB61BB697B6108E07B69013B82
:1002C0000F4A52F8233098477B69013B7B617B6979
:1002D000002BF3DC00BFF86C00F080F8B4030008DA
:1002E000CC030008CC030008DC030008DC03000892
:1002F000DC030008DC030008DC030008DC03000862
:10030000DC0300082548004700BF80B400AFFEE7CB
:100310001EF0040F0CBFEFF30880EFF30980714665
:100320001F4A104700BF80B483B000AF78603960C7
:10033000FEE780B400AFFEE71EF0040F0CBFEFF342
:100340000880EFF309807146164A104700BF80B459
:1003500083B000AF78603960FEE71EF0040F0CBF79
:10036000EFF30880EFF3098071460F4A104700BF92
:1003700080B483B000AF78603960FEE780B400AF2E
:10038000FEE780B400AFFEE780B400AFFEE780B4C4
:1003900000AF00BFBD4680BC70470000950100085B
:1003A000270300084F0300087103000880B400AF62
:0203B000FEE766
:1003B4005C0F0008000000201C0000205C0F0008F7
:1003C40000000010000000101C000020200000208D
:0803D400000000100000001001
:1003DC0080B582B000AF786000F03CF880B483B098
:1003EC0000AF786039607B6801221A603B68034A71
:1003FC001A6000BF0C37BD4680BC7047000000205F
:10040C0080B500AF00F02AF8024B034A9A6000BF97
:10041C0080BD00BF00ED00E00000000880B500AF1B
:10042C0000F028F800BF80BD80B400AFBFF34F8F41
:10043C0000BF064BDB6803F4E0620449044B134332
:10044C00CB60BFF34F8F00BF00BFFDE700ED00E0B6
:10045C000400FA0580B500AFFFF7E6FF80B400AFEB
:10046C00034B4FF000629A6000BFBD4680BC7047E2
:10047C0000ED00E080B487B000AF00233B610023A7
:10048C007B610223FB600023BB6002237B60344B47
:10049C009B6803F00C033B613B69082B11D03B6953
:1004AC00082B44D83B69002B03D03B69042B04D0A8
:1004BC003DE02C4B2C4A1A603DE02A4B2B4A1A602B
:1004CC0039E0274B5B689B0D03F00103BB60244BA9
:1004DC005B6803F03F037B60BB68002B0CD0234AA6
:1004EC007B68B2FBF3F31E4A52689209C2F308020E
:1004FC0002FB03F37B610BE01B4A7B68B2FBF3F35B
:10050C00174A52689209C2F3080202FB03F37B619B
:10051C00134B5B681B0C03F0030301335B00FB60A4
:10052C007A69FB68B2FBF3F30E4A136003E00D4BE0
:10053C000D4A1A6000BF0A4B9B681B0903F00F039E
:10054C000B4AD35C3B61074B1A683B6922FA03F3F5
:10055C00044A136000BF1C37BD4680BC704700BF07
:10056C0000380240080000200024F40000127A0039
:10057C004C0F000880B500AF00F074F8002000F0BC
:10058C007FF8012000F07CF80221412000F0CCF82B
:10059C0000220221412000F0E1F80421412000F06A
:1005AC00C3F800220421412000F0D8F80621412094
:1005BC0000F0BAF800220621412000F0CFF8052106
:1005CC00422000F0DBF90821422000F0D7F900BFEF
:1005DC0080BD80B500AF01220221412000F0BEF8A1
:1005EC0001220621412000F0B9F80122042141200A
:1005FC0000F0B4F84FF4FA7000F094F900220421E2
:10060C00412000F0ABF84FF4FA7000F08BF90122A6
:10061C000421412000F0A2F84FF4FA7000F082F9A6
:10062C0000220421412000F099F84FF4FA7000F0F8
:10063C0079F900220621412000F090F800BF80BD1E
:10064C0080B582B000AF78603960FFF793FF052169
:10065C00422000F0B7F90346012BF8D1FFF7B9FFA0
:10066C00F5E7000080B400AF044B1B68034A43F06D
:10067C000103136000BFBD4680BC704700380240C8
:10068C0080B485B000AF0346FB71FB795B09FB734B
:10069C00FB7903F01F03BB73FB7B032B36D801A242
:1006AC0052F823F0C1060008D7060008ED06000832
:1006BC0003070008184B1B68BA7B012101FA02F2F0
:1006CC001146154A0B43136021E0144B1B68BA7B8F
:1006DC00012101FA02F21146104A0B43136016E095
:1006EC000F4B1B68BA7B012101FA02F211460C4A2E
:1006FC000B4313600BE00B4B1B68BA7B012101FA17
:10070C0002F21146074A0B43136000E000BF00BF22
:10071C001437BD4680BC7047303802403438024034
:10072C00403802404438024080B584B002AF0346E2
:10073C000A46FB711346BB71B979F8790023009313
:10074C000023012200F01EF8B979FB79002218462B
:10075C0000F080F800BF0837BD4680BD80B582B080
:10076C0000AF0346FB710B46BB7113467B717A7964
:10077C00B979FB79184600F06DF800BF0837BD4613
:10078C0080BD000090B486B000AF04460846114608
:10079C001A462346FB710346BB710B467B7113460D
:1007AC003B71FB79413BFB75FB7D294A52F82330A9
:1007BC003B61FB7D264A52F823300433FB60FB7D02
:1007CC00234A52F823300C33BB603B691B68BA795F
:1007DC005200032101FA02F2D2431A403B691A601B
:1007EC003B691B687979BA79520001FA02F21A4313
:1007FC003B691A60FB681B68BA79012101FA02F2A5
:10080C00D2431A40FB681A60FB681B683979BA79C5
:10081C0001FA02F21A43FB681A60BB681B68BA79CA
:10082C005200032101FA02F2D2431A40BB681A604B
:10083C00BB681B6897F82010BA79520001FA02F2D3
:10084C001A43BB681A6000BF1837BD4690BC70478E
:10085C000C00002080B487B000AF0346FB710B4640
:10086C00BB7113467B71FB79413BFB75FB7D194AD0
:10087C0052F823303B61FB7D164A52F82330143377
:10088C00FB603B691B68BA795200032101FA02F242
:10089C001A40BB795B0022FA03F3012B01D0002331
:1008AC0013E0FB681B68BA79012101FA02F2D2430A
:1008BC001A40FB681A60FB681B687979BA7901FAEF
:1008CC0002F21A43FB681A60012318461C37BD4616
:1008DC0080BC70470C00002080B487B000AF03468A
:1008EC000A46FB711346BB71FB79413BFB75FB7DE3
:1008FC000B4A52F8233010333B613B691B68BA79C1
:10090C00012101FA02F21340002B0CBF012300233A
:10091C00DBB2FB73FB7B18461C37BD4680BC7047B3
:10092C000C00002090B587B000AF7860114B3B6194
:10093C00786800F03DF904460F49386900F090F9E9
:10094C0003461946204600F03FFA0346184600F0CD
:10095C00D7FA0346FB6000237B6102E07B6901331D
:10096C007B617A69FB689A42F8D300BF00BF1C37E1
:10097C00BD4690BDBD37863500007A4480B584B045
:10098C0002AF03460A46FB711346BB71BB790122C9
:10099C0002FA03F31AB20A4B1B881BB213431BB2A5
:1009AC009AB2074B1A80B979F87901230093002386
:1009BC000022FFF7E7FE00BF0837BD4680BD00BF31
:1009CC001E00002080B582B000AF03460A46FB71C2
:1009DC001346BB71BA79FB7911461846FFF77CFFB9
:1009EC000346012B1AD11E20FFF79CFFBA79FB7925
:1009FC0011461846FFF770FF0346012B1BD1104B15
:100A0C001B881A46BB7942FA03F303F00103002B4F
:100A1C0011D00B4B00221A8001230DE0BB7901226F
:100A2C0002FA03F31AB2064B1B881BB213431BB218
:100A3C009AB2034B1A80002318460837BD4680BD76
:100A4C001E00002080F0004002E000BF81F0004159
:100A5C0042001FBF5FEA410392EA030F7FEA226C58
:100A6C007FEA236C6AD04FEA1262D2EB1363C1BFE8
:100A7C00D218414048404140B8BF5B42192B88BF57
:100A8C00704710F0004F40F4000020F07F4018BF7A
:100A9C00404211F0004F41F4000121F07F4118BF9A
:100AAC00494292EA030F3FD0A2F1010241FA03FC42
:100ABC0010EB0C00C3F1200301FA03F100F000432A
:100ACC0002D5494260EB4000B0F5000F13D3B0F1F2
:100ADC00807F06D340084FEA310102F10102FE2A61
:100AEC0051D2B1F1004F40EBC25008BF20F00100D1
:100AFC0040EA03007047490040EB0000013A28BF70
:100B0C00B0F5000FEDD2B0FA80FCACF1080CB2EBF2
:100B1C000C0200FA0CF0AABF00EBC2505242184370
:100B2C00BCBFD0401843704792F0000F81F4000115
:100B3C0006BF80F400000132013BB5E74FEA4103E8
:100B4C007FEA226C18BF7FEA236C21D092EA030F54
:100B5C0004D092F0000F08BF0846704790EA010FCE
:100B6C001CBF0020704712F07F4F04D1400028BFFB
:100B7C0040F00040704712F100723CBF00F50000DD
:100B8C00704700F0004343F0FE4040F40000704713
:100B9C007FEA226216BF08467FEA236301464202BF
:100BAC0006BF5FEA412390EA010F40F480007047D2
:100BBC004FF0000304E000BF10F0004348BF404278
:100BCC005FEA000C08BF704743F0964301464FF0B4
:100BDC0000001CE050EA010208BF70474FF0000310
:100BEC000AE000BF50EA010208BF704711F0004351
:100BFC0002D5404261EB41015FEA010C02BF844621
:100C0C000146002043F0B64308BFA3F18053A3F57F
:100C1C000003BCFA8CF2083AA3EBC25310DB01FAC6
:100C2C0002FC634400FA02FCC2F12002BCF1004F4A
:100C3C0020FA02F243EB020008BF20F001007047DB
:100C4C0002F1200201FA02FCC2F1200250EA4C002F
:100C5C0021FA02F243EB020008BF20EADC70704775
:100C6C004FF0FF0C1CEAD0521EBF1CEAD15392EA83
:100C7C000C0F93EA0C0F6FD01A4480EA010C40025F
:100C8C0018BF5FEA41211ED04FF0006343EA5010B9
:100C9C0043EA5111A0FB01310CF00040B1F5000FFB
:100CAC003EBF490041EAD3715B0040EA010062F1AA
:100CBC007F02FD2A1DD8B3F1004F40EBC25008BF94
:100CCC0020F00100704790F0000F0CF0004C08BFB2
:100CDC0049024CEA502040EA51207F3AC2BFD2F17F
:100CEC00FF0340EAC250704740F400004FF000038D
:100CFC00013A5DDC12F1190FDCBF00F000407047C7
:100D0C00C2F10002410021FA02F1C2F1200200FA04
:100D1C0002FC5FEA310040F1000053EA4C0308BFCB
:100D2C0020EADC70704792F0000F00F0004C02BF1C
:100D3C00400010F4000F013AF9D040EA0C0093F097
:100D4C00000F01F0004C02BF490011F4000F013BF1
:100D5C00F9D041EA0C018FE70CEAD15392EA0C0F5F
:100D6C0018BF93EA0C0F0AD030F0004C18BF31F0CA
:100D7C00004CD8D180EA010000F00040704790F0A0
:100D8C00000F17BF90F0004F084691F0000F91F044
:100D9C00004F14D092EA0C0F01D142020FD193EA0A
:100DAC000C0F03D14B0218BF084608D180EA010092
:100DBC0000F0004040F0FE4040F40000704740F06E
:100DCC00FE4040F4400070474FF0FF0C1CEAD0523C
:100DDC001EBF1CEAD15392EA0C0F93EA0C0F69D098
:100DEC00A2EB030280EA010C49024FEA402037D003
:100DFC004FF0805343EA111143EA10130CF00040FA
:100E0C008B4238BF5B0042F17D024FF4000C8B42E9
:100E1C0024BF5B1A40EA0C00B3EB510F24BFA3EBC9
:100E2C00510340EA5C00B3EB910F24BFA3EB910399
:100E3C0040EA9C00B3EBD10F24BFA3EBD10340EAF3
:100E4C00DC001B0118BF5FEA1C1CE0D1FD2A3FF639
:100E5C0050AF8B4240EBC25008BF20F001007047EE
:100E6C000CF0004C4CEA50207F32C2BFD2F1FF0391
:100E7C0040EAC250704740F400004FF00003013AC2
:100E8C0037E792F0000F00F0004C02BF400010F466
:100E9C00000F013AF9D040EA0C0093F0000F01F07A
:100EAC00004C02BF490011F4000F013BF9D041EA9C
:100EBC000C0195E70CEAD15392EA0C0F08D14202CF
:100ECC007FF47DAF93EA0C0F7FF470AF084676E7A2
:100EDC0093EA0C0F04D14B023FF44CAF08466EE77B
:100EEC0030F0004C18BF31F0004CCAD130F0004249
:100EFC007FF45CAF31F000437FF43CAF5FE700BFA1
:100F0C0042000ED2B2F1FE4F0BD34FF09E03B3EB67
:100F1C00126209D44FEA002343F0004323FA02F093
:100F2C0070474FF00000704712F1610F01D142027F
:100F3C0002D14FF0FF3070474FF00000704700BFF8
:100F4C00000000000000000001020304060708096D
:100F5C001C000020000000000024F40000000240EF
:0C0F6C000004024000080240000C02409B
:040000050800019559
:00000001FF
