:020000040800F2
:1000000000000120050300080B030008110300088D
:1000100033030008390300085B03000800000000F8
:100020000000000000000000000000007D03000848
:100030008303000800000000890300088F03000804
:10004000AD03000875130008B1130008C5130008BC
:10005000AD030008AD0300089D110008B1110008B0
:10006000C5110008D9110008ED110008AD03000802
:10007000AD030008AD030008AD030008AD030008A0
:10008000AD030008AD030008AD0300080000000048
:100090000000000000000000000000000112000845
:1000A000AD030008AD030008AD030008AD03000870
:1000B000AD030008AD030008AD030008AD03000860
:1000C000AD030008AD030008AD030008AD03000850
:1000D000AD030008AD030008AD03000800000000F8
:1000E000A9120008891300089D13000800000000F1
:1000F000000000000000000000000000AD03000848
:1001000000000000AD030008AD030008AD030008C7
:1001100000000000000000000000000000000000DF
:10012000AD030008AD030008AD030008AD030008EF
:10013000AD03000800000000000000000000000007
:10014000000000000000000000000000AD030008F7
:10015000AD030008AD030008AD030008AD030008BF
:10016000AD030008AD03000800000000000000001F
:10017000000000000000000000000000000000007F
:1001800000000000AD0300080000000000000000B7
:10019000AD03000880B596B000AF00F037F94F4BC3
:1001A0007B6524E07B6D1A1D7A651B683B647B6D63
:1001B0001A1D7A651B68FB637B6D1A1D7A651B68C7
:1001C000BB633B6C7B63FB6B3B63BB6BFB623B6B5F
:1001D000BB6207E07A6B131D7B63BB6A191DB962B2
:1001E00012681A60FA6ABB6A9A42F3D800BF7B6D44
:1001F0003B4A9342D6D33B4B3B651AE03B6D1A1DFD
:100200003A651B68BB643B6D1A1D3A651B687B64CD
:10021000BB6C7B627B6C3B627B6AFB6104E0FB69CD
:100220001A1DFA6100221A603A6AFB699A42F6D8EE
:1002300000BF3B6D2C4A9342E0D300F0F5F83A1D25
:1002400007F108031146184600F0CEF8274A284B5C
:10025000D31A9B103B610023FB6007E0244AFB6834
:1002600052F823309847FB680133FB603A69FB681A
:100270009A42F3DC1F4A204BD31A9B103B610023A8
:10028000FB6007E01C4AFB6852F823309847FB6884
:100290000133FB603A69FB689A42F3DC00BFBB683C
:1002A0007A681146184600F0E7FAF864134A144BCE
:1002B000D31A9B10BB61BB697B6108E07B69013B82
:1002C0000F4A52F8233098477B69013B7B617B6979
:1002D000002BF3DC00BFF86C00F080F8B4030008DA
:1002E000CC030008CC030008DC030008DC03000892
:1002F000DC030008DC030008DC030008DC03000862
:10030000DC0300082548004700BF80B400AFFEE7CB
:100310001EF0040F0CBFEFF30880EFF30980714665
:100320001F4A104700BF80B483B000AF78603960C7
:10033000FEE780B400AFFEE71EF0040F0CBFEFF342
:100340000880EFF309807146164A104700BF80B459
:1003500083B000AF78603960FEE71EF0040F0CBF79
:10036000EFF30880EFF3098071460F4A104700BF92
:1003700080B483B000AF78603960FEE780B400AF2E
:10038000FEE780B400AFFEE780B400AFFEE780B4C4
:1003900000AF00BFBD4680BC70470000950100085B
:1003A000270300084F0300087103000880B400AF62
:0203B000FEE766
:1003B40040150008000000204000002040150008FF
:1003C400000000100000001040000020B0000020D9
:0803D400000000100000001001
:1003DC0080B582B000AF786000F03CF880B483B098
:1003EC0000AF786039607B6801221A603B68034A71
:1003FC001A6000BF0C37BD4680BC7047000000205F
:10040C0080B500AF00F02AF8024B034A9A6000BF97
:10041C0080BD00BF00ED00E00000000880B500AF1B
:10042C0000F028F800BF80BD80B400AFBFF34F8F41
:10043C0000BF064BDB6803F4E0620449044B134332
:10044C00CB60BFF34F8F00BF00BFFDE700ED00E0B6
:10045C000400FA0580B500AFFFF7E6FF80B400AFEB
:10046C00034B4FF000629A6000BFBD4680BC7047E2
:10047C0000ED00E080B487B000AF00233B610023A7
:10048C007B610223FB600023BB6002237B60344B47
:10049C009B6803F00C033B613B69082B11D03B6953
:1004AC00082B44D83B69002B03D03B69042B04D0A8
:1004BC003DE02C4B2C4A1A603DE02A4B2B4A1A602B
:1004CC0039E0274B5B689B0D03F00103BB60244BA9
:1004DC005B6803F03F037B60BB68002B0CD0234AA6
:1004EC007B68B2FBF3F31E4A52689209C2F308020E
:1004FC0002FB03F37B610BE01B4A7B68B2FBF3F35B
:10050C00174A52689209C2F3080202FB03F37B619B
:10051C00134B5B681B0C03F0030301335B00FB60A4
:10052C007A69FB68B2FBF3F30E4A136003E00D4BE0
:10053C000D4A1A6000BF0A4B9B681B0903F00F039E
:10054C000B4AD35C3B61074B1A683B6922FA03F3F5
:10055C00044A136000BF1C37BD4680BC704700BF07
:10056C0000380240080000200024F40000127A0039
:10057C003015000880B582B000AF0346FB71FB79E3
:10058C001A460221412000F0C7FAFB791A460621CF
:10059C00412000F0C1FAFB791A460421412000F0F9
:1005AC00BBFA00BF0837BD4680BD000080B500AF68
:1005BC0000F036FA002000F041FA012000F03EFA7B
:1005CC00402000F03BFA6E2000F038FA00F022F9DF
:1005DC000221412000F086FA00220221412000F085
:1005EC009BFA0421412000F07DFA002204214120D5
:1005FC0000F092FA0621412000F074FA0022062144
:10060C00412000F089FA0521422000F0DFFE08218C
:10061C00422000F0DBFE054800F09AFB044B002260
:10062C000821012000F066FC00BF80BD0C000020FA
:10063C00AD07000880B582B000AF1A4800F02CFC62
:10064C007860194B1B687A68D31AB3F5FA7F24D3F8
:10065C00164B1B780133DAB2144B1A7000220421AA
:10066C00412000F059FA114B1B78042B0FD10022BA
:10067C000621412000F050FA0C4B00221A700C4A53
:10068C00137843F020031370082000F03DFD05485B
:10069C0000F002FC0346044A136000BF0837BD4655
:1006AC0080BD00BF0C000020440000204100002051
:1006BC004800002080B582B000AF082000F03AFD61
:1006CC001E4800F0E9FB78601D4B1B687A68D31A52
:1006DC00B3F5FA7F2ED31B4B1B780133DAB2194BCF
:1006EC001A700421412000F02AFA144800F0D4FBBF
:1006FC000346134A1360134B1B78032B1AD1114B6F
:10070C0000221A7000220421412000F005FA0E4A42
:10071C001378022161F3010313700B4A137843F031
:10072C0010031370084A13786FF3C7131370074B39
:10073C0000221A7000BF0837BD4680BD0C00002097
:10074C00440000204200002048000020A4000020AB
:10075C0080B582B000AF0F4800F09EFB78600E4B66
:10076C001B687A68D31AB3F57A7F0FD3002206215F
:10077C00412000F0D1F9094A137843F004031370B7
:10078C00044800F089FB0346034A136000BF083796
:10079C00BD4680BD0C000020440000204800002015
:1007AC0080B500AF184B1B7803F04003DBB2002B75
:1007BC0005D1154A137843F04003137004E0124A34
:1007CC0013786FF3861313700F4A137843F00803F2
:1007DC00137001220621412000F09EF90A4A137879
:1007EC006FF382031370084A13786FF3C7131370F7
:1007FC00064800F051FB0346054A1360082000F040
:10080C00B1FC00BF80BD00BF480000200C000020E0
:10081C004400002080B400AF134A13786FF38203B6
:10082C001370114A13786FF3C30313700E4A1378C5
:10083C0043F0100313700C4A13786FF345131370C5
:10084C00094A1378022161F301031370064A1378E5
:10085C006FF386131370044A137843F080031370FC
:10086C0000BFBD4680BC70474800002080B500AF7B
:10087C00FFF79CFE0521422000F0CCFD0346012B26
:10088C004AD1634B1B7803F04003DBB2002B43D1FE
:10089C00604B01221A705E4B1B7803F00303DBB232
:1008AC00022B04D15A4A13786FF301031370584B7F
:1008BC001B7803F00303DBB2002B06D1544A1378E8
:1008CC00012161F30103137009E0514A13786FF3AE
:1008DC00010313704E4A13786FF3C3031370012096
:1008EC00FFF748FE4A4A13786FF304131370484A13
:1008FC0013786FF3C7131370454A13786FF34513CE
:10090C00137042F21071444800F060FA424800F053
:10091C00C3FA0346414A13603D4B1B7803F00303B3
:10092C00DBB2012B56D13A4B1B7803F02003DBB220
:10093C00002B01D1FFF77EFE354B1B7803F04003F3
:10094C00DBB2002B08D1324B1B7803F00403DBB273
:10095C00002B01D1FFF7FCFE2F4800F057FA03469D
:10096C00002B2CD12A4B1B7823F07F03DBB2002BFE
:10097C0025D1274B1B7803F04003DBB2002B1ED193
:10098C00234B1B7803F00803DBB2002B17D14FF479
:10099C00FA61214800F01AFA1D4A137843F08003DB
:1009AC0013701D4800F078FA03461C4A13600020AF
:1009BC00FFF7E0FD01220421412000F0ADF8144BBB
:1009CC001B7823F07F03DBB2002B3FF453AFFFF710
:1009DC0071FE4FE70E4B1B7803F00303DBB2002BC9
:1009EC007FF448AF0A4B1B7803F04003DBB2002BBB
:1009FC007FF440AF00220621412000F08DF8002248
:100A0C000221412000F088F8FFF754FE32E700BFC6
:100A1C0048000020A40000200C000020440000200E
:100A2C0080B400AF044B1B68034A43F0010313600E
:100A3C0000BFBD4680BC70470038024080B485B012
:100A4C0000AF0346FB71FB795B09FB73FB7903F089
:100A5C001F03BB73FB7B032B36D801A252F823F088
:100A6C007D0A0008930A0008A90A0008BF0A0008BA
:100A7C00184B1B68BA7B012101FA02F21146154A88
:100A8C000B43136021E0144B1B68BA7B012101FA64
:100A9C0002F21146104A0B43136016E00F4B1B6811
:100AAC00BA7B012101FA02F211460C4A0B43136086
:100ABC000BE00B4B1B68BA7B012101FA02F21146C9
:100ACC00074A0B43136000E000BF00BF1437BD465C
:100ADC0080BC704730380240343802404038024005
:100AEC004438024080B584B002AF03460A46FB711D
:100AFC001346BB71B979F8790023009300230122C6
:100B0C0000F03EF8B979FB790022184600F094F811
:100B1C0000BF0837BD4680BD80B582B000AF03462C
:100B2C00FB710B46BB7113467B717A79B979FB79F2
:100B3C00184600F081F800BF0837BD4680BD80B56F
:100B4C0084B000AF03460A46FB711346BB71BA79F9
:100B5C00FB791146184600F0ABF80346FB73FB7BA0
:100B6C00002B0CBF01230023DBB21A46B979FB79A9
:100B7C00184600F061F800BF1037BD4680BD00007C
:100B8C0090B484B000AF0446084611461A4623467A
:100B9C00FB710346BB710B467B7113463B71FB79B2
:100BAC00413BFB73FB7B234A52F82330BB60BB6891
:100BBC001B68BA795200032101FA02F2D2431A409F
:100BCC00BB681A60BB681B687979BA79520001FA64
:100BDC0002F21A43BB681A60BB685B68BA790121E0
:100BEC0001FA02F2D2431A40BB685A60BB685B68D8
:100BFC003979BA7901FA02F21A43BB685A60BB68B8
:100C0C00DB68BA795200032101FA02F2D2431A408E
:100C1C00BB68DA60BB68DB68397EBA79520001FACE
:100C2C0002F21A43BB68DA6000BF1037BD4690BCB5
:100C3C00704700BF1400002080B485B000AF03469D
:100C4C00FB710B46BB7113467B71FB79413BFB730C
:100C5C00FB7B164A52F82330BB60BB681B68BA7921
:100C6C005200032101FA02F21A40BB795B0022FA0E
:100C7C0003F3012B01D0002313E0BB685B69BA7945
:100C8C00012101FA02F2D2431A40BB685A61BB68D7
:100C9C005B697979BA7901FA02F21A43BB685A6135
:100CAC00012318461437BD4680BC70471400002041
:100CBC0080B485B000AF03460A46FB711346BB7186
:100CCC00FB79413BBB73BB7B204A52F82330BB60A2
:100CDC00BB681B68BA795200032101FA02F21A4070
:100CEC00BB795B0022FA03F3012B0DD1BB685B6966
:100CFC00BA79012101FA02F21340002B14BF01232F
:100D0C000023DBB2FB731AE0BB681B68BA79520094
:100D1C00032101FA02F21A40BB795B0022FA03F3B9
:100D2C00002B0CD1BB681B69BA79012101FA02F2C4
:100D3C001340002B0CBF01230023DBB2FB73FB7BA6
:100D4C0018461437BD4680BC704700BF1400002005
:100D5C0080B483B000AF78607B689B885A1E7B6838
:100D6C001B689A627B689B79012B08D17B681B6896
:100D7C001A687B681B6842F010021A6018E07B68E6
:100D8C009B79002B08D17B681B681A687B681B68F1
:100D9C0022F010021A600BE07B689B79022B07D1C2
:100DAC007B681B681A687B681B6842F060021A60DB
:100DBC007B681B685A697B681B6842F001025A61A8
:100DCC0000BF0C37BD4680BC7047000080B483B0B8
:100DDC0000AF786039607B681B683A68DA627B68C0
:100DEC001B6800225A62084B01221A707B681B6830
:100DFC001A687B681B6842F001021A6000BF0C374E
:100E0C00BD4680BC704700BF4900002080B483B051
:100E1C0000AF78607B689B79022B0DD11C4B1B7843
:100E2C00002B09D07B681B681B681B09DBB203F025
:100E3C000103DAB2174B1A707B689B79012B03D034
:100E4C00144B1B78012B0FD1114B1B78002B0BD0A3
:100E5C007B681B685B6A012B04D10D4B00221A7056
:100E6C00002310E001230EE07B681B685A6A7B6844
:100E7C001B68DB6A013B9A4204D1054B00221A70B5
:100E8C00002300E0012318460C37BD4680BC704798
:100E9C00490000204A00002080B485B000AF786083
:100EAC007B681B685B6AFB607B681B68DB6ABB60EA
:100EBC007B689B79022B09D17B681B681B681B091B
:100ECC00DBB203F00103DAB2094B1A707B689B7931
:100EDC00012B03D0064B1B78012B03D1BA68FB689E
:100EEC00D31AFB60FB6818461437BD4680BC7047AC
:100EFC004A00002080B485B000AF3B600346FB7114
:100F0C000B46BB7113467B71BB79032B1BD8794BFA
:100F1C009B68F979BA7902F00302920001FA02F2A5
:100F2C00D2431146734A0B409360724B9B68F9791C
:100F3C00BA7902F00302920001FA02F211466D4AEC
:100F4C000B43936064E0BB79032B1ED9BB79072B51
:100F5C001BD8684BDB68F979BA7902F0030292006E
:100F6C0001FA02F2D2431146624A0B40D360614B44
:100F7C00DB68F979BA7902F00302920001FA02F205
:100F8C0011465C4A0B43D36042E0BB79072B1ED958
:100F9C00BB790B2B1BD8574B1B69F979BA7902F02B
:100FAC000302920001FA02F2D2431146514A0B405D
:100FBC001361504B1B69F979BA7902F00302920064
:100FCC0001FA02F211464B4A0B43136120E0BB7944
:100FDC000B2B1DD9BB790F2B1AD8464B5B69F979B2
:100FEC00BA7902F00302920001FA02F2D2431146DE
:100FFC00404A0B4053613F4B5B69F979BA7902F077
:10100C000302920001FA02F211463A4A0B43536171
:10101C00BB79394AD35CFB73BB7938493A6841F8E0
:10102C002320FB7B1F2B0CD8354B1B68FA7B02F063
:10103C001F02012101FA02F21146314A0B431360DF
:10104C001EE0FB7B1F2B0FD9FB7B3F2B0CD82C4BB3
:10105C005B68FA7B02F01F02012101FA02F21146D1
:10106C00274A0B4353600BE0254B9B68FA7B02F03D
:10107C001F02012101FA02F21146214A0B4393602F
:10108C007B79022B1CD0022B2FDC002B02D0012BE6
:10109C000BD02AE01B4BDB68BA79012101FA02F272
:1010AC001146184A0B43D3601FE0164B9B68BA7964
:1010BC00012101FA02F21146124A0B43936014E02B
:1010CC00104BDB68BA79012101FA02F211460D4A84
:1010DC000B43D3600B4B9B68BA79012101FA02F2E6
:1010EC001146084A0B43936000BF00BF1437BD463E
:1010FC0080BC704700380140280000204C000020C4
:10110C0000E100E0003C014080B483B000AF034636
:10111C00FB71074B1B68FA79012101FA02F21146A7
:10112C00034A0B43136000BF0C37BD4680BC7047AD
:10113C00003C014080B483B000AF0346FB71084B08
:10114C001B68FA79012101FA02F2D2431146044AD2
:10115C000B40136000BF0C37BD4680BC704700BF0E
:10116C00003C014080B483B000AF0346FB71074BD9
:10117C005B69FA79012101FA02F21146034A0B4329
:10118C00536100BF0C37BD4680BC7047003C01402A
:10119C0080B500AF024B1B68984700BF80BD00BFF5
:1011AC004C00002080B500AF024B5B68984700BF35
:1011BC0080BD00BF4C00002080B500AF024B9B6887
:1011CC00984700BF80BD00BF4C00002080B500AF29
:1011DC00024BDB68984700BF80BD00BF4C0000206D
:1011EC0080B500AF024B1B69984700BF80BD00BFA4
:1011FC004C00002080B500AF264BDB685B0903F088
:10120C000103002B06D1234B9B685B0903F0010300
:10121C00002B03D0204B5B69984739E01D4BDB68F2
:10122C009B0903F00103002B06D11A4B9B689B0909
:10123C0003F00103002B03D0174B9B69984727E061
:10124C00144BDB68DB0903F00103002B06D1114BB7
:10125C009B68DB0903F00103002B03D00E4BDB6909
:10126C00984715E00B4BDB681B0A03F00103002BBE
:10127C0006D1084B9B681B0A03F00103002B03D01B
:10128C00054B1B6A984703E0034B5B6A984700BF0A
:10129C0000BF80BD003C01404C00002080B500AF79
:1012AC002F4BDB689B0A03F00103002B06D12C4B60
:1012BC009B689B0A03F00103002B03D0294B9B6A0C
:1012CC0098474BE0264BDB68DB0A03F00103002B4D
:1012DC0006D1234B9B68DB0A03F00103002B03D0E0
:1012EC00204BDB6A984739E01D4BDB681B0B03F086
:1012FC000103002B06D11A4B9B681B0B03F0010357
:10130C00002B03D0174B1B6B984727E0144BDB6863
:10131C005B0B03F00103002B06D1114B9B685B0B9D
:10132C0003F00103002B03D00E4B5B6B984715E0C9
:10133C000B4BDB689B0B03F00103002B06D1084B16
:10134C009B689B0B03F00103002B03D0054B9B6B9D
:10135C00984703E0034BDB6B984700BF00BF80BD91
:10136C00003C01404C00002080B500AF024B1B6CD0
:10137C00984700BF80BD00BF4C00002080B500AF77
:10138C00024B5B6C984700BF80BD00BF4C00002037
:10139C0080B500AF024B9B6C984700BF80BD00BF6F
:1013AC004C00002080B500AF024B5B6D984700BF2E
:1013BC0080BD00BF4C00002080B500AF024B9B6D80
:1013CC00984700BF80BD00BF4C00002080B584B0A2
:1013DC0002AF03460A46FB711346BB71BB7901226F
:1013EC0002FA03F31AB20A4B1B881BB213431BB24B
:1013FC009AB2074B1A80B979F8790123009300232C
:10140C000022FFF7BDFB00BF0837BD4680BD00BF03
:10141C00AC00002080B584B000AF03460A46FB71D7
:10142C001346BB710223FB73384B1B78002B2FD157
:10143C00374B1B78002B04D14FF47A713548FFF7EA
:10144C00C5FCBA79FB7911461846FFF731FC034607
:10145C001A46314B1A70304B1B78012B09D12B4B90
:10146C0001221A702B48FFF717FD03462B4A136015
:10147C0047E0BB79012202FA03F31AB2284B1B880E
:10148C001BB213431BB29AB2254B1A80002339E0CE
:10149C002048FFF701FDB860204B1B68BA68D31ACF
:1014AC001D2B2ED9BA79FB7911461846FFF700FC93
:1014BC000346FB73154B00221A70174B1B78FA7BF3
:1014CC009A421ED1144B1B78012B1AD1144B1B883A
:1014DC001A46BB7942FA03F303F00103002B10D038
:1014EC00BB79012202FA03F31BB2DB431AB20C4B99
:1014FC001B881BB213401BB29AB2094B1A800123F2
:10150C0000E0002318461037BD4680BDAE00002019
:10151C00A40000200C0000203F000020A8000020A8
:10152C00AC000020000000000000000001020304D9
:04153C00060708098D
:1015400040000020000000000024F40000000040E3
:10155000A00F00000000024000040240000802400A
:10156000000C024000100240060708090A1717176E
:10157000171728282828282801292A0000020302F2
:040000050800019559
:00000001FF
